{
  "contractName": "TestInt",
  "abi": [
    {
      "constant": true,
      "inputs": [],
      "name": "get",
      "outputs": [
        {
          "name": "",
          "type": "int256"
        }
      ],
      "payable": false,
      "stateMutability": "view",
      "type": "function"
    },
    {
      "constant": false,
      "inputs": [
        {
          "name": "count",
          "type": "uint256"
        }
      ],
      "name": "inc",
      "outputs": [
        {
          "name": "",
          "type": "int256"
        }
      ],
      "payable": false,
      "stateMutability": "nonpayable",
      "type": "function"
    },
    {
      "constant": false,
      "inputs": [
        {
          "name": "val",
          "type": "int256"
        }
      ],
      "name": "add",
      "outputs": [
        {
          "name": "",
          "type": "int256"
        }
      ],
      "payable": false,
      "stateMutability": "nonpayable",
      "type": "function"
    },
    {
      "constant": false,
      "inputs": [
        {
          "name": "count",
          "type": "uint256"
        }
      ],
      "name": "dec",
      "outputs": [
        {
          "name": "",
          "type": "int256"
        }
      ],
      "payable": false,
      "stateMutability": "nonpayable",
      "type": "function"
    },
    {
      "constant": false,
      "inputs": [
        {
          "name": "val",
          "type": "int256"
        }
      ],
      "name": "set",
      "outputs": [
        {
          "name": "",
          "type": "int256"
        }
      ],
      "payable": false,
      "stateMutability": "nonpayable",
      "type": "function"
    },
    {
      "constant": false,
      "inputs": [
        {
          "name": "val",
          "type": "int256"
        }
      ],
      "name": "sub",
      "outputs": [
        {
          "name": "",
          "type": "int256"
        }
      ],
      "payable": false,
      "stateMutability": "nonpayable",
      "type": "function"
    },
    {
      "anonymous": false,
      "inputs": [
        {
          "indexed": false,
          "name": "value",
          "type": "int256"
        }
      ],
      "name": "setEvent",
      "type": "event"
    },
    {
      "anonymous": false,
      "inputs": [
        {
          "indexed": false,
          "name": "value",
          "type": "int256"
        }
      ],
      "name": "addEvent",
      "type": "event"
    },
    {
      "anonymous": false,
      "inputs": [
        {
          "indexed": false,
          "name": "value",
          "type": "int256"
        }
      ],
      "name": "subEvent",
      "type": "event"
    },
    {
      "anonymous": false,
      "inputs": [
        {
          "indexed": false,
          "name": "value",
          "type": "int256"
        },
        {
          "indexed": false,
          "name": "count",
          "type": "uint256"
        }
      ],
      "name": "incEvent",
      "type": "event"
    },
    {
      "anonymous": false,
      "inputs": [
        {
          "indexed": false,
          "name": "value",
          "type": "int256"
        },
        {
          "indexed": false,
          "name": "count",
          "type": "uint256"
        }
      ],
      "name": "decEvent",
      "type": "event"
    }
  ],
  "bytecode": "0x6060604052341561000f57600080fd5b6103df8061001e6000396000f300606060405260043610610078576000357c0100000000000000000000000000000000000000000000000000000000900463ffffffff1680636d4ce63c1461007d578063812600df146100a657806387db03b7146100dd578063c20efb9014610114578063e5c19b2d1461014b578063fa3bd6c514610182575b600080fd5b341561008857600080fd5b6100906101b9565b6040518082815260200191505060405180910390f35b34156100b157600080fd5b6100c760048080359060200190919050506101c2565b6040518082815260200191505060405180910390f35b34156100e857600080fd5b6100fe6004808035906020019091905050610240565b6040518082815260200191505060405180910390f35b341561011f57600080fd5b6101356004808035906020019091905050610294565b6040518082815260200191505060405180910390f35b341561015657600080fd5b61016c6004808035906020019091905050610313565b6040518082815260200191505060405180910390f35b341561018d57600080fd5b6101a3600480803590602001909190505061035f565b6040518082815260200191505060405180910390f35b60008054905090565b600080600090505b61ffff83168110156101f457600080815480929190600101919050555080806001019150506101ca565b7f05cccf31edd9b3407926270e7580cad15220bbfc052fdcb85fff19ed5bca726b60005482604051808381526020018281526020019250505060405180910390a1600054915050919050565b60008160008082825401925050819055507fe0cba81e4315630a64fe905c624e89c11dd9af9171c68dfc776d34bbc4db78ca6000546040518082815260200191505060405180910390a16000549050919050565b600080600090505b61ffff83168110156102c757600080815480929190600190039190505550808060010191505061029c565b7f27e03773ce4b4c943775dfc244d779efb6b08c0ba20aa41b4d0d4c6df7d86c7a60005482604051808381526020018281526020019250505060405180910390a1600054915050919050565b6000816000819055507fd255e9e5c33ed0911b49cfee6d1e4b880df079cd19f4e53f7a8273cdd08180d66000546040518082815260200191505060405180910390a16000549050919050565b60008160008082825403925050819055507f1d48e9653be5100db2db34466e3c5fd9b88469865aea235c53bb98e7cb0198716000546040518082815260200191505060405180910390a160005490509190505600a165627a7a7230582030ee3e8a21e397cec4eb52221849a0981c25a457577b6e41b9db6e2c7d3387170029",
  "source": "pragma solidity ^0.4.4;\r\n\r\ncontract TestInt {\r\n    int m_val;\r\n\r\n    event setEvent(int256 value);\r\n    function set(int val) returns(int) {\r\n        m_val = val;\r\n        setEvent(m_val);\r\n        return m_val;\r\n    }\r\n\r\n    event addEvent(int256 value);\r\n    function add(int val) returns(int) {\r\n        m_val += val;\r\n        addEvent(m_val);\r\n        return m_val;\r\n    }\r\n    event subEvent(int256 value);\r\n    function sub(int val) returns(int) {\r\n        m_val -= val;\r\n        subEvent(m_val);\r\n        return m_val;\r\n    }\r\n\r\n    event incEvent(int256 value, uint count);\r\n    function inc(uint count) returns(int) {\r\n        uint i = 0;\r\n        for(; i < (count & 0xffff); i++){\r\n            m_val++;\r\n        }\r\n\r\n        incEvent(m_val, i);\r\n        return m_val;\r\n    }\r\n\r\n    event decEvent(int256 value, uint count);\r\n    function dec(uint count) returns(int) {\r\n        uint i = 0;\r\n        for(; i < (count & 0xffff); i++){\r\n            m_val--;\r\n        }\r\n\r\n        decEvent(m_val, i);\r\n        return m_val;\r\n    }\r\n\r\n    function get() constant returns(int){\r\n        return m_val;\r\n    }\r\n}\r\n",
  "sourcePath": "D:\\src\\dapp\\solidity\\contracts\\TestInt.sol",
  "compiler": {
    "name": "solc",
    "version": "0.4.18+commit.9cf6e910.Emscripten.clang"
  },
  "schemaVersion": "1.0.1",
  "updatedAt": "2018-01-31T09:07:07.223Z"
}